:100000000C945D000C9485000C9485000C94850084
:100010000C9485000C9485000C9485000C9485004C
:100020000C9485000C9485000C9485000C9485003C
:100030000C9485000C9485000C9485000C9485002C
:100040000C9442060C9485000C9485000C94850059
:100050000C9485000C9485000C9485000C9485000C
:100060000C9423050C948500000000002400270058
:100070002A0000000000250028002B0004040404CE
:100080000404040402020202020203030303030342
:10009000010204081020408001020408102001021F
:1000A00004081020000000080002010000030407FB
:1000B00000000000000000008C0611241FBECFEFDE
:1000C000D8E0DEBFCDBF11E0A0E0B1E0E6EAF0E1AC
:1000D00002C005900D92A034B107D9F722E0A0E448
:1000E000B1E001C01D92A432B207E1F710E0CDE506
:1000F000D0E004C02197FE010E944608CC35D1070C
:10010000C9F70E94BE060C9451080C94000085EDBE
:100110008093BC008091BC0084FDFCCF1092D9017B
:1001200008952091B301260F3327331F2132310563
:10013000ECF42091D901FC0190E080E0243069F0DA
:1001400082E00895A091B3012191AC014F565E4F1A
:10015000A40FB52FB11D2C930196861798F38091AB
:10016000B301680F6093B30180E0089581E00895C2
:10017000089508950895E0918E0180918D01E8170A
:1001800030F4F0E0E359FE4F808190E008958FEF66
:100190009FEF089590918E0180918D012FEF3FEF99
:1001A000981748F4E92FF0E0E359FE4F208130E042
:1001B0009F5F90938E01C901089580918D01909168
:1001C0008E01891B990B0895CF92DF92EF92FF92D7
:1001D0000F931F93CF93DF937C01CB018A01209172
:1001E0006C01222389F0EB016B01C40ED51ECC15E6
:1001F000DD0569F06991D701ED91FC910190F081E5
:10020000E02DC7010995F3CF642F0E949100C8012A
:10021000DF91CF911F910F91FF90EF90DF90CF90E2
:100220000895CF93DF931F92CDB7DEB769832091F6
:100230006C012223F9F020918F01203258F021E047
:1002400030E0FC013383228390E080E00F90DF9167
:10025000CF91089580919001E82FF0E0E45BFE4F8C
:10026000998190838F5F8093900180938F0181E0CB
:1002700090E0ECCF61E0CE0101960E949100F7CFB3
:10028000CF93FC012381222309F473C0262F6181BF
:10029000609562236083C28181E080936C01C0938A
:1002A0004B011092900110928F018FEF91E00E940C
:1002B000110190918F0121E0913208F045C08091A9
:1002C000D9018111FCCF82E08093D90181E0809334
:1002D000DB018FEF8093D8011092FD019093FC0118
:1002E000ACE4B1E0ECEDF1E080E098133CC010929A
:1002F000FE018091FE01CC0FC82BC093FE018091BE
:10030000DA018130A1F51092DA018091FE0180932B
:10031000BB008091BC0083FDF8CF85EC8093BC00CE
:100320008091D9018230E1F38091D80120E08F3FA4
:1003300059F08091D80122E0803231F08091D801CB
:1003400024E0803309F423E01092900110928F0191
:1003500010926C0130E081E090E0232B11F090E0EE
:1003600080E0CF9108952D9121938F5FBECF85EED0
:10037000D5CF30E020E0EFCF90E0FC01EC55FF4F0F
:100380002491FC01E057FF4F3491FC01E458FF4FEA
:10039000E491EE23C9F0222339F0233001F1A8F4CF
:1003A000213019F1223029F1F0E0EE0FFF1FEE5855
:1003B000FF4FA591B4918FB7F894EC91611126C0CD
:1003C00030953E233C938FBF08952730A9F0283005
:1003D000C9F0243049F7809180008F7D03C080915F
:1003E00080008F7780938000DFCF84B58F7784BDC6
:1003F000DBCF84B58F7DFBCF8091B0008F7780936A
:10040000B000D2CF8091B0008F7DF9CF3E2BDACFF4
:10041000CF93DF9390E0FC01E057FF4F2491845885
:100420009F4FFC0184918823D1F090E0880F991FA1
:10043000FC01E859FF4FA591B491FC01EE58FF4F24
:10044000C591D49161110EC09FB7F8948C91E22FA1
:10045000E0958E238C932881E223E8839FBFDF9170
:10046000CF9108958FB7F894EC91E22BEC938FBF66
:10047000F6CF3FB7F8948091470190914801A09141
:100480004901B0914A0126B5A89B05C02F3F19F03C
:100490000196A11DB11D3FBFBA2FA92F982F882704
:1004A000BC01CD01620F711D811D911D42E0660FDF
:1004B000771F881F991F4A95D1F70895AF92BF9271
:1004C000CF92DF92EF92FF920F931F93CF93DF9320
:1004D0006C017B018B01040F151FEB015E01AE184F
:1004E000BF08C017D10759F06991D601ED91FC9171
:1004F0000190F081E02DC6010995892B79F7C5019E
:10050000DF91CF911F910F91FF90EF90DF90CF90EF
:10051000BF90AF900895EF92FF920F931F93CF93E8
:100520008C01FC0184E0C0E0262F30E060FF02C0B7
:100530009589C92BB90175956795815031968111BF
:10054000F3CF413011F4F8014489F8016585C62BD9
:10055000C42B7801FEE0EF0EF11CF80162896C2BD0
:10056000C7010E944001F801628960956C23C701B0
:10057000CF911F910F91FF90EF900C9440010F933A
:100580001F93CF93DF93062F0F70423041F440E06A
:10059000602FDF91CF911F910F910C948B02142F3C
:1005A000EC0170E084E0759567958A95E1F7CE01DE
:1005B0000E948B02412F602FCE01EBCFFC0184857E
:1005C0008823A1F0218532852115310521F461119F
:1005D00007C0158606C021303105D9F76111F9CF62
:1005E00085876585CF010E960C944001089521E022
:1005F00001C0220F6A95EAF7DC011C962C931C9728
:100600001A965C934E931997ED91FC910484F585AD
:10061000E02D60E00994DC01ED91FC910684F78502
:10062000E02D41E0099581E090E00895DC01ED9135
:10063000FC910684F785E02D40E009940F931F9309
:10064000CF93DF93CDB7DEB728970FB6F894DEBF10
:100650000FBECDBF00910001109101012091020158
:10066000309103010D831E832F833887009104018D
:1006700010910501209106013091070109831A8329
:100680002B833C8390911202691710F06FEF690F72
:10069000262F30E0409113022C0F3D1FF90140310D
:1006A00099F4943089F46181680F60688BE092E07E
:1006B00028960FB6F894DEBF0FBECDBFDF91CF9165
:1006C0001F910F910C9416036581EECF8F929F922C
:1006D000AF92BF92CF92DF92EF92FF920F931F9350
:1006E000CF93DF93EC01423018F08C8188608C83CB
:1006F0004F836887222329F0413019F48C8184606C
:100700008C830E9439024B015C0184E6C82ED12CF7
:10071000E12CF12C0E943902681979098A099B0998
:10072000683E734081059105A8F321E0C21AD10803
:10073000E108F10888EE880E83E0981EA11CB11C28
:10074000C114D104E104F10429F76C8164FD5DC09A
:10075000E881F9810684F785E02D42E063E0CE016F
:1007600009950BE416E4C8010197F1F7E881F981D6
:100770000684F785E02D42E063E0CE010995C801CB
:100780000197F1F7E881F9810684F785E02D42E0D1
:1007900063E0CE01099583E592E00197F1F7E881E6
:1007A000F9810684F785E02D42E062E0CE010995EB
:1007B0006C816062CE010E94160384E08D836CE040
:1007C000CE010E94160361E0CE010E9416038BE366
:1007D0009FE10197F1F782E08E8366E0CE010E94EF
:1007E0001603E881F9810484F585E02D6FEFCE01D1
:1007F000DF91CF911F910F91FF90EF90DF90CF90FD
:10080000BF90AF909F908F9009946062CE010E943C
:1008100016038BE496E40197F1F76C816062CE01D8
:100820000E94160383E592E00197F1F76C81606204
:10083000CE010E941603BCCF08950895089590E05C
:1008400080E008958F929F92AF92BF920F931F9373
:10085000CF93DF93CDB7DEB7A1970FB6F894DEBF85
:100860000FBECDBF19A2423008F44AE08E010F5DE1
:100870001F4F842E912CB12CA12CA50194010E9414
:100880000E08E62FB901CA01EA3044F5E05DD8014F
:10089000EE938D01232B242B252B79F790E080E01C
:1008A000109769F0FD0101900020E9F73197AF0141
:1008B0004A1B5B0BBD018BE092E00E945E02A19699
:1008C0000FB6F894DEBF0FBECDBFDF91CF911F9161
:1008D0000F91BF90AF909F908F900895E95CD7CF14
:1008E000FC0101900020E9F73197AF01481B590B3B
:1008F000BC018BE092E00C945E02FF920F931F9379
:10090000CF93DF93EC01162F042FF22E8B85888B6B
:1009100010928E0110928D011092900110928F0111
:100920001092D90181E08093DB011092DA0161E03D
:1009300082E10E94BC0161E083E10E94BC018091E0
:10094000B9008E7F8093B9008091B9008D7F80932C
:10095000B90088E48093B80085E48093BC0088EBFC
:1009600090E09093B2018093B10189EB90E0909375
:10097000B6018093B50188899091D9019111FCCF7E
:1009800091E09093D9019093DB012FEF2093D80150
:100990001092FD011092FC019093FE019091FE01D6
:1009A000880F892B8093FE018091DA01813009F054
:1009B00042C01092DA018091FE018093BB008091C9
:1009C000BC0083FDF8CF85EC8093BC008091D901F9
:1009D0008130E1F38091FD0191E0811102C090919D
:1009E000FD01ECEDF1E0ADE6B1E080E0891325C05A
:1009F00010928E0180938D0191E0811101C090E0F1
:100A0000998B8FEF91E00E94CA008E878989882395
:100A100039F01F861C8260E0CE010E960E944001D4
:100A20002F2D402F612FCE01DF91CF911F910F917C
:100A3000FF900C94660385EEC7CF21912D938F5FB5
:100A4000D5CF0E944C081F920F920FB60F9211241F
:100A50002F933F934F935F936F937F938F939F93C6
:100A6000AF93BF93EF93FF938091B900887F803657
:100A700009F44AC0F0F5883209F4A7C018F58031AE
:100A800009F49BC0B8F4882309F4F9C0883009F44C
:100A900094C0FF91EF91BF91AF919F918F917F9102
:100AA0006F915F914F913F912F910F900FBE0F90DB
:100AB0001F901895883109F488C0803251F78093CF
:100AC000D80114C0803409F49DC040F48033B9F3D8
:100AD0008833F9F68093D80185ECB0C0803509F4ED
:100AE00085C0883509F496C0883499F60E9487003D
:100AF000D0CF883909F48CC038F5883729F050F404
:100B0000883611F0803729F683E08093D90110925E
:100B1000D70157C0883809F47BC0803919F0803874
:100B200009F0B7CF8091D701803208F071C0E09111
:100B3000D70181E08E0F8093D7018091BB00F0E058
:100B4000E954FE4F80833DC0803B39F0E0F4803AA9
:100B500009F479C0883A09F09CCF84E08093D901E8
:100B60001092B4011092B301E091B101F091B20181
:100B700009958091B30181110FC081E08093B30189
:100B80001092910109C0803C09F4A6CF883C09F479
:100B9000A3CF883B09F07DCFE091B40181E08E0FB7
:100BA0008093B401F0E0EF56FE4F80818093BB004C
:100BB0009091B4018091B30129C08091FE0180938E
:100BC000BB0085EC8093BC0064CF9091FD018091C7
:100BD000FC01981758F5E091FD0181E08E0F80939C
:100BE000FD01F0E0E452FE4F8081E9CFE091FD018C
:100BF00081E08E0F8093FD018091BB00F0E0E45214
:100C0000FE4F80839091FD018091FC019817C8F2FE
:100C100085E8D8CFE091FD0181E08E0F8093FD0142
:100C20008091BB00F0E0E452FE4F80838091DB01B5
:100C300081115CCF81E08093DA0184EA8093BC006B
:100C40001092D90126CF85EC8093BC001092D90177
:100C50008091D701803230F4E091D701F0E0E9547F
:100C6000FE4F10826091D70170E0E091B501F091E4
:100C7000B60187EB91E009951092D7010ACF109247
:100C8000D80134CF1F920F920FB60F9211242F93D9
:100C90003F938F939F93AF93BF9380914301909124
:100CA0004401A0914501B09146013091420123E0F9
:100CB000230F2D3758F50196A11DB11D2093420138
:100CC0008093430190934401A0934501B093460162
:100CD0008091470190914801A0914901B0914A014A
:100CE0000196A11DB11D8093470190934801A093E7
:100CF0004901B0934A01BF91AF919F918F913F916C
:100D00002F910F900FBE0F901F90189526E8230F7C
:100D10000296A11DB11DD2CFEFEFF1E01382128236
:100D200088EE93E0A0E0B0E084839583A683B78348
:100D30008CE091E091838083EBE0F2E013821282F9
:100D40008EE191E091838083108A8FEF87871686EA
:100D5000118A87E28387148615861286118684E0BD
:100D6000828B82E0838B81E0848B80E1858B80E2C3
:100D7000868B80E4878B80E8808F0895789484B593
:100D8000826084BD84B5816084BD85B5826085BD87
:100D900085B5816085BD80916E00816080936E0015
:100DA0001092810080918100826080938100809107
:100DB00081008160809381008091800081608093B8
:100DC00080008091B10084608093B1008091B00078
:100DD00081608093B00080917A00846080937A0073
:100DE00080917A00826080937A0080917A0081609D
:100DF00080937A0080917A00806880937A001092C4
:100E0000C10020E042E060E18BE092E00E947D04BE
:100E100050E040E063E08BE092E00E94F70261E086
:100E20008BE092E00E94DE0261E08BE00E9408020B
:100E300060E080E10E94080260E080E00E941E0302
:100E40008EE291E00E94700482E4782E88248A94D5
:100E500093E0992EA12CB12C0FEA10E0C0E0D0E075
:100E600070927C0080917A00806480937A008091F7
:100E70007A0086FDFCCF80917800A0917900BA2F8E
:100E8000A82F2FEF30E00E943F08A50194010E9497
:100E9000EF07D22EC32EE22EF32EF0924101E09204
:100EA000400161E08BE00E940802E114F10409F0C6
:100EB0004AC060E08BE00E94BC01A0914001B0916B
:100EC00041012AE931E00E943F08A50194010E94F6
:100ED000EF07309341012093400161E080E00E94E0
:100EE0001E03C0904001D09041010D2C000CEE0873
:100EF000FF084AE0C701B601F7FE0DC06DE28BE0C6
:100F000092E00E940B0366277727CB016C197D09BD
:100F10008E099F094AE00E94220489E391E00E9421
:100F2000700461E083E00E941E038BE391E00E9465
:100F3000700489E391E00E947004209709F490CF37
:100F40000E9400008DCF8FEFE816F10411F461E0EC
:100F5000B1CFF8018491833031F148F48130C9F088
:100F60008230E1F0F0E8EF16F1048CF7A2CF873081
:100F700031F1883061F18430A9F78091800080627E
:100F8000809380008D2D9C2D90938B0080938A0000
:100F900094CF84B5806884BDD7BC8FCF84B5806280
:100FA00084BDD8BC8ACF8091800080688093800007
:100FB0008D2D9C2D90938900809388007ECF809109
:100FC000B00080688093B000D092B30076CF80915B
:100FD000B00080628093B000D092B4006ECF052E36
:100FE00097FB1EF400940E94060857FD07D00E944C
:100FF0000E0807FC03D04EF40C940608509540955B
:10100000309521953F4F4F4F5F4F089590958095B4
:10101000709561957F4F8F4F9F4F0895A1E21A2ED3
:10102000AA1BBB1BFD010DC0AA1FBB1FEE1FFF1F8C
:10103000A217B307E407F50720F0A21BB30BE40BDC
:10104000F50B661F771F881F991F1A9469F7609523
:101050007095809590959B01AC01BD01CF010895DD
:10106000A29FB001B39FC001A39F700D811D1124E9
:10107000911DB29F700D811D1124911D08950E9434
:101080003008B7FF0895821B930B0895EE0FFF1FE2
:101090000590F491E02D099481E090E0F8940C948F
:0610A0005108F894FFCF97
:1010A6000040145400401050000000001101E400FC
:1010B6001F04BA00DD00CA00BB00000000000B03DD
:1010C6005E021F041E047D04F702DE02BF024272A6
:1010D600696768746E6573733A20002F313030008B
:00000001FF
