:100000000C9462000C948A000C948A000C948A0070
:100010000C948A000C948A000C948A000C9492032D
:100020000C948A000C948A000C948A000C948A0028
:100030000C948A000C948A000C948A000C948A0018
:100040000C94F0020C948A000C9460030C943A0314
:100050000C948A000C948A000C948A000C948A00F8
:100060000C948A000C948A00000000080002010031
:100070000003040700000000000000000000000072
:10008000240027002A000000000023002600290089
:1000900000000000250028002B00040404040404D0
:1000A0000404020202020202030303030303010227
:1000B00004081020408001020408102001020408F6
:1000C0001020B70311241FBECFEFD8E0DEBFCDBF95
:1000D00011E0A0E0B1E0EEE2FBE002C005900D927D
:1000E000A032B107D9F721E0A0E2B1E001C01D9232
:1000F000AC3DB207E1F710E0C2E6D0E004C02197C2
:10010000FE010E948F05C136D107C9F70E94240461
:100110000C9495050C94000090E0FC01E255FF4F13
:10012000249186569F4FFC018491882399F090E09A
:10013000880F991FFC01E458FF4FA591B491FC0171
:10014000E057FF4F859194918FB7F894EC91E22B93
:10015000EC938FBF089590E0FC01E859FF4F249184
:10016000FC01E255FF4F3491FC01E656FF4FE4914C
:10017000EE23C9F0222339F0233001F1A8F4213015
:1001800019F1223029F1F0E0EE0FFF1FE057FF4F89
:10019000A591B4918FB7F894EC91611126C0309578
:1001A0003E233C938FBF08952730A9F02830C9F033
:1001B000243049F7809180008F7D03C080918000BA
:1001C0008F7780938000DFCF84B58F7784BDDBCFBE
:1001D00084B58F7DFBCF8091B0008F778093B00086
:1001E000D2CF8091B0008F7DF9CF3E2BDACF3FB7D1
:1001F000F8948091290190912A01A0912B01B0914E
:100200002C0126B5A89B05C02F3F19F00196A11D12
:10021000B11D3FBFBA2FA92F982F8827BC01CD0150
:10022000620F711D811D911D42E0660F771F881FAF
:10023000991F4A95D1F70895AF92BF92CF92DF925E
:10024000EF92FF920F931F93CF93DF936C017B018B
:100250008B01040F151FEB015E01AE18BF08C0171C
:10026000D10759F06991D601ED91FC910190F0818F
:10027000E02DC6010995892B79F7C501DF91CF9152
:100280001F910F91FF90EF90DF90CF90BF90AF90B4
:100290000895FC01538D448D252F30E0842F90E08C
:1002A000821B930B541710F0CF9608950197089571
:1002B000FC01918D828D981761F0A28DAE0FBF2F3A
:1002C000B11D5D968C91928D9F5F9F73928F90E090
:1002D00008958FEF9FEF0895FC01918D828D9817FF
:1002E00031F0828DE80FF11D858D90E008958FEF3C
:1002F0009FEF0895FC01918D228D892F90E0805C05
:100300009F4F821B91098F73992708958DE291E089
:100310000E947A0121E0892B09F420E0822F0895C0
:1003200080E090E0892B29F00E94860181110C94D5
:1003300000000895FC01A48DA80FB92FB11DA35A88
:10034000BF4F2C91848D90E001968F739927848FF5
:10035000A689B7892C93A089B1898C918370806418
:100360008C93938D848D981306C00288F389E02DB9
:1003700080818F7D80830895EF92FF920F931F936A
:10038000CF93DF93EC0181E0888F9B8D8C8D981348
:100390001AC0E889F989808185FF15C09FB7F89454
:1003A000EE89FF896083E889F989808183708064A0
:1003B00080839FBF81E090E0DF91CF911F910F91EB
:1003C000FF90EF900895F62E0B8D10E00F5F1F4FFA
:1003D0000F731127E02E8C8D8E110CC00FB607FC09
:1003E000FACFE889F989808185FFF5CFCE010E9497
:1003F0009A01F1CFEB8DEC0FFD2FF11DE35AFF4F6A
:10040000F0829FB7F8940B8FEA89FB898081806224
:10041000CFCFCF93DF93EC01888D8823B9F0AA89E1
:10042000BB89E889F9898C9185FD03C0808186FDAF
:100430000DC00FB607FCF7CF8C9185FFF2CF8081FE
:1004400085FFEDCFCE010E949A01E9CFDF91CF91D8
:1004500008950F931F93E091D401F091D50180810D
:100460009091CE01892B8083E091D001F091D10150
:1004700090818091CE018095892380838BE090E0EC
:100480000197F1F7E091D001F091D1018081909135
:10049000CE01892B808383E290E00197F1F7E09110
:1004A000D001F091D10190818091CE018095892376
:1004B0008083E091D401F091D50190818091CE01AB
:1004C000809589238083E091D201F091D3018081CE
:1004D0009091CF01892329F090E080E01F910F9146
:1004E00008950E94F700AB01BC018091D601909164
:1004F000D701B0E0A0E08855994EAF4FBF4F840FB1
:10050000951FA61FB71F8093D8019093D901A09380
:10051000DA01B093DB01E091D201F091D301808147
:100520009091CF01892381F40E94F7000091D801B6
:100530001091D9012091DA013091DB0106171707DC
:100540002807390740F7C8CF0E94F7002091D6014D
:100550003091D701620F731F811D911D6093D801E7
:100560007093D9018093DA019093DB01E091D2017D
:10057000F091D30180819091CF01892381F00E9475
:10058000F7000091D8011091D9012091DA01309142
:10059000DB01061717072807390740F79DCF0E9490
:1005A000F7002091D6013091D701A901455051099A
:1005B0002091D8013091D901FA01E21BF30BCF0150
:1005C000860F971F8BCFFC0101900020E9F7319730
:1005D000AF01481B590BBC018DE291E00C941C014A
:1005E0001F920F920FB60F9211242F933F938F9368
:1005F0009F93AF93BF938091250190912601A09185
:100600002701B09128013091240123E0230F2D37D9
:1006100058F50196A11DB11D209324018093250159
:1006200090932601A0932701B0932801809129017E
:1006300090912A01A0912B01B0912C010196A11D4E
:10064000B11D8093290190932A01A0932B01B093AF
:100650002C01BF91AF919F918F913F912F910F905E
:100660000FBE0F901F90189526E8230F0296A11D2C
:10067000B11DD2CF1F920F920FB60F9211242F935C
:100680003F934F935F936F937F938F939F93AF931A
:10069000BF93EF93FF938DE291E00E949A01FF9147
:1006A000EF91BF91AF919F918F917F916F915F91EA
:1006B0004F913F912F910F900FBE0F901F90189563
:1006C0001F920F920FB60F9211242F938F939F9327
:1006D000EF93FF93E0913D01F0913E018081E09125
:1006E0004301F091440182FD1BC09081809146013D
:1006F0008F5F8F7320914701821741F0E09146018F
:10070000F0E0E35DFE4F958F80934601FF91EF91FE
:100710009F918F912F910F900FBE0F901F90189562
:100720008081F4CF1F920F920FB60F9211242F9356
:100730003F934F935F936F937F938F939F93AF9369
:10074000BF93EF93FF93F0E0E0E00995FF91EF9105
:10075000BF91AF919F918F917F916F915F914F91D9
:100760003F912F910F900FBE0F901F901895EDE2C3
:10077000F1E01382128288EE93E0A0E0B0E084837F
:100780009583A683B78384E091E09183808385EC91
:1007900090E09587848784EC90E09787868780EC4B
:1007A00090E0918B808B81EC90E0938B828B82EC3C
:1007B00090E0958B848B86EC90E0978B868B118EE6
:1007C000128E138E148EEAEBF0E0E491AAECB1E005
:1007D0001496EC931497E9EBF0E0E4911596EC9302
:1007E000159786EA90E0FC012491E22FF0E0EE0FED
:1007F000FF1FE057FF4F2591349117963C932E939E
:100800001697E5EAF0E0E491F0E0EE0FFF1FEA57FB
:10081000FF4F2591349119963C932E931897FC0124
:100820008491E82FF0E0EE0FFF1FE458FF4F859111
:1008300094911B969C938E931A9789E595E61D9645
:100840009C938E931C970895CF93DF93CDB7DEB71B
:10085000A1970FB6F894DEBF0FBECDBF789484B5D4
:10086000826084BD84B5816084BD85B5826085BDAC
:1008700085B5816085BD80916E00816080936E003A
:10088000109281008091810082608093810080912C
:1008900081008160809381008091800081608093DD
:1008A00080008091B10084608093B1008091B0009D
:1008B00081608093B00080917A00846080937A0098
:1008C00080917A00826080937A0080917A008160C2
:1008D00080937A0080917A00806880937A001092E9
:1008E000C100E0913D01F0913E0182E08083E09102
:1008F0003901F0913A011082E0913B01F0913C0105
:100900008FEC808310924501E0914101F09142010A
:1009100086E08083E0913F01F09140018081806119
:100920008083E0913F01F091400180818860808365
:10093000E0913F01F0914001808180688083E091E7
:100940003F01F091400180818F7D808383E00E9490
:100950008C0099E3892E912CA12CB12C20E0222E21
:1009600020E0322E0E94F7002B013C0182E3C82ECA
:10097000D12CE12CF12C0E94F7006419750986092D
:100980009709683E734081059105A8F321E0C21ADA
:10099000D108E108F10888EE480E83E0581E611C7A
:1009A000711CC114D104E104F10429F782E191E042
:1009B0000E94E3020E942902BC0190E080E0A501B0
:1009C00094010E946D0519A28E010F5D1F4FCA018F
:1009D000B9012AE030E040E050E00E946D05605D22
:1009E000F80162938F01211531054105510579F711
:1009F000309719F0CF010E94E30289E191E00E9453
:100A0000E3028CE191E00E94E3020E942902BC0112
:100A100090E080E0A50194010E946D05FAE0F29F4C
:100A20008001F39F100D112483E00E948C000115BA
:100A3000110529F460E083E00E94AB0023C0EBE6DF
:100A4000F0E08491833079F148F48130B9F082305C
:100A500029F10038110570F361E0EDCF873069F1BD
:100A6000883099F18430A9F780918000806280936A
:100A7000800010938B0000938A0004C084B58068C6
:100A800084BD07BD2114310409F46CCF0E94860196
:100A9000882309F467CF0E94000064CF84B5806288
:100AA00084BD08BDEFCF8091800080688093800076
:100AB0001093890000938800E5CF8091B000806892
:100AC0008093B0000093B300DDCF8091B0008062CE
:100AD0008093B0000093B400D5CFA1E21A2EAA1BD8
:100AE000BB1BFD010DC0AA1FBB1FEE1FFF1FA217DE
:100AF000B307E407F50720F0A21BB30BE40BF50BDB
:100B0000661F771F881F991F1A9469F76095709563
:100B1000809590959B01AC01BD01CF010895EE0F2A
:0E0B2000FF1F0590F491E02D0994F894FFCF8B
:100B2E0000000000BC011C01490109027A015801B4
:100B3E006C0150696E673A2000636D000D0A00006B
:00000001FF
