:100000000C945D000C948C020C9465020C94850099
:100010000C9485000C9485000C9485000C9485004C
:100020000C9485000C9485000C9485000C9485003C
:100030000C9485000C9485000C9485000C9485002C
:100040000C941B020C9485000C94D9020C94B302FE
:100050000C9485000C9485000C9485000C9485000C
:100060000C9485000C9485000000000024002700FB
:100070002A0000000000250028002B0004040404CE
:100080000404040402020202020203030303030342
:10009000010204081020408001020408102001021F
:1000A00004081020000000080002010000030407FB
:1000B0000000000000000000460411241FBECFEF26
:1000C000D8E0DEBFCDBF11E0A0E0B1E0EAE3F9E0A7
:1000D00002C005900D92A632B107D9F721E0A6E241
:1000E000B1E001C01D92A03DB207E1F710E0CDE5FF
:1000F000D0E004C02197FE010E949504CC35D107C1
:10010000C9F70E940B030C949B040C94000090E030
:10011000FC01EC55FF4F2491FC01E057FF4F349157
:10012000FC01E458FF4FE491EE23C9F0222339F09B
:10013000233001F1A8F4213019F1223029F1F0E047
:10014000EE0FFF1FEE58FF4FA591B4918FB7F894B3
:10015000EC91611126C030953E233C938FBF0895EA
:100160002730A9F02830C9F0243049F78091800069
:100170008F7D03C0809180008F7780938000DFCFD8
:1001800084B58F7784BDDBCF84B58F7DFBCF809125
:10019000B0008F778093B000D2CF8091B0008F7D78
:1001A000F9CF3E2BDACF0895AF92BF92CF92DF9274
:1001B000EF92FF920F931F93CF93DF936C017B011C
:1001C0008B01040F151FEB015E01AE18BF08C017AD
:1001D000D10759F06991D601ED91FC910190F08120
:1001E000E02DC6010995892B79F7C501DF91CF91E3
:1001F0001F910F91FF90EF90DF90CF90BF90AF9045
:10020000089581E090E02091280130912901232B6D
:1002100011F090E080E09093290180932801809173
:100220002601909127010196909327018093260142
:1002300061E08AE00C94870081E090E02091280141
:1002400030912901232B11F090E080E09093290157
:100250008093280160E08AE00C948700FC01538DB4
:10026000448D252F30E0842F90E0821B930B541790
:1002700010F0CF96089501970895FC01918D828D1D
:10028000981761F0A28DAE0FBF2FB11D5D968C91B6
:10029000928D9F5F9F73928F90E008958FEF9FEFF5
:1002A0000895FC01918D828D981731F0828DE80FB1
:1002B000F11D858D90E008958FEF9FEF0895FC016B
:1002C000918D228D892F90E0805C9F4F821B910938
:1002D0008F739927089583E391E00E945F0121E0E5
:1002E000892B09F420E0822F089580E090E0892B8B
:1002F00029F00E946B0181110C9400000895FC010B
:10030000A48DA80FB92FB11DA35ABF4F2C91848D76
:1003100090E001968F739927848FA689B7892C93D3
:10032000A089B1898C91837080648C93938D848D26
:10033000981306C00288F389E02D80818F7D808329
:100340000895EF92FF920F931F93CF93DF93EC01E9
:1003500081E0888F9B8D8C8D98131AC0E889F9896C
:10036000808185FF15C09FB7F894EE89FF8960836F
:10037000E889F98980818370806480839FBF81E0F0
:1003800090E0DF91CF911F910F91FF90EF90089532
:10039000F62E0B8D10E00F5F1F4F0F731127E02E0D
:1003A0008C8D8E110CC00FB607FCFACFE889F98945
:1003B000808185FFF5CFCE010E947F01F1CFEB8DCB
:1003C000EC0FFD2FF11DE35AFF4FF0829FB7F89419
:1003D0000B8FEA89FB8980818062CFCFCF93DF9337
:1003E000EC01888D8823B9F0AA89BB89E889F9894D
:1003F0008C9185FD03C0808186FD0DC00FB607FC82
:10040000F7CF8C9185FFF2CF808185FFEDCFCE01B4
:100410000E947F01E9CFDF91CF910895FC01019007
:100420000020E9F73197AF01481B590BBC0183E36A
:1004300091E00C94D4001F920F920FB60F921124EA
:100440002F933F938F939F93AF93BF9380912F01EF
:1004500090913001A0913101B091320130912E0183
:1004600023E0230F2D3758F50196A11DB11D2093D0
:100470002E0180932F0190933001A0933101B0930E
:10048000320180912A0190912B01A0912C01B09111
:100490002D010196A11DB11D80932A0190932B017E
:1004A000A0932C01B0932D01BF91AF919F918F919B
:1004B0003F912F910F900FBE0F901F90189526E837
:1004C000230F0296A11DB11DD2CF1F920F920FB61E
:1004D0000F9211242F933F934F935F936F937F93CA
:1004E0008F939F93AF93BF93EF93FF93E09102019C
:1004F000F09103010995FF91EF91BF91AF919F9109
:100500008F917F916F915F914F913F912F910F90BC
:100510000FBE0F901F9018951F920F920FB60F925B
:1005200011242F933F934F935F936F937F938F93F8
:100530009F93AF93BF93EF93FF93E0910001F091EE
:1005400001010995FF91EF91BF91AF919F918F911B
:100550007F916F915F914F913F912F910F900FBEBF
:100560000F901F9018951F920F920FB60F921124A3
:100570002F933F934F935F936F937F938F939F93AB
:10058000AF93BF93EF93FF9383E391E00E947F01CA
:10059000FF91EF91BF91AF919F918F917F916F915B
:1005A0005F914F913F912F910F900FBE0F901F9031
:1005B00018951F920F920FB60F9211242F938F93BD
:1005C0009F93EF93FF93E0914301F0914401808169
:1005D000E0914901F0914A0182FD1BC09081809118
:1005E0004C018F5F8F7320914D01821741F0E09194
:1005F0004C01F0E0ED5CFE4F958F80934C01FF9134
:10060000EF919F918F912F910F900FBE0F901F90A0
:1006100018958081F4CFCF93DF93CDB7DEB7A19744
:100620000FB6F894DEBF0FBECDBF789484B582605C
:1006300084BD84B5816084BD85B5826085BD85B586
:10064000816085BD80916E00816080936E00109204
:10065000810080918100826080938100809181007F
:100660008160809381008091800081608093800010
:100670008091B10084608093B1008091B00081606E
:100680008093B00080917A00846080937A0080919A
:100690007A00826080937A0080917A0081608093F2
:1006A0007A0080917A00806880937A001092C1006D
:1006B000EAE9F0E02491E6E8F0E08491882399F0FB
:1006C00090E0880F991FFC01E859FF4FA591B49164
:1006D000FC01EE58FF4F859194918FB7F894EC91FF
:1006E000E22BEC938FBFE2E9F0E02491EEE7F0E03B
:1006F00084918823C9F090E0880F991FFC01E85984
:10070000FF4F45915491FC01EE58FF4FA591B491D4
:100710009FB7F894FA013081822F809583238083DC
:10072000EC91E22BEC939FBF81E091E0909301016B
:100730008093000180916900836080936900E89A4A
:100740008CE191E090930301809302018091690014
:10075000837F886080936900E99AE0914301F0917A
:10076000440182E08083E0913F01F09140011082DA
:10077000E0914101F09142018FEC808310924B0196
:10078000E0914701F091480186E08083E0914501C6
:10079000F0914601808180618083E0914501F09174
:1007A0004601808188608083E0914501F091460197
:1007B000808180688083E0914501F09146018081CD
:1007C0008F7D80838AE0882E912CA12CB12C00E0B3
:1007D00010E0609128018AE00E94870086E191E0A4
:1007E0000E940E02C0902601D09027010D2C000C13
:1007F000EE08FF08F7FE34C06DE283E391E00E944B
:10080000A10122273327A9012C193D094E095F09AF
:1008100019A2CE0181967C01CA01B901A5019401FA
:100820000E947304605DF70162937F012115310519
:100830004105510589F7E114F10419F0C7010E943F
:100840000E0283E291E00E940E020115110509F2E9
:100850000E946B01882309F4BCCF0E940000B9CF2D
:10086000A701960119A2CE0181967C01CA01B901A6
:10087000A50194010E947304605DF70162937F01FA
:10088000211531054105510589F7D5CFE3E3F1E0A5
:100890001382128288EE93E0A0E0B0E08483958317
:1008A000A683B78388E091E09183808385EC90E014
:1008B0009587848784EC90E09787868780EC90E02A
:1008C000918B808B81EC90E0938B828B82EC90E01B
:1008D000958B848B86EC90E0978B868B118E128E95
:1008E000138E148E0895A1E21A2EAA1BBB1BFD01C4
:1008F0000DC0AA1FBB1FEE1FFF1FA217B307E407FF
:10090000F50720F0A21BB30BE40BF50B661F771F56
:10091000881F991F1A9469F7609570958095909536
:100920009B01AC01BD01CF010895EE0FFF1F0590A3
:0A093000F491E02D0994F894FFCF34
:10093A00D300D30000000000A101D4002E01EE0173
:10094A005F013D015101636F756E746572206973B1
:06095A003A20000D0A0026
:00000001FF
